:020000021000EC
:10F8000011241FBE8FEF90E19EBF8DBFEDC22F92DE
:10F810003F924F925F926F927F928F929F92AF92A0
:10F82000BF92CF92DF92EF92FF920F931F93DF93DD
:10F83000CF93CDB7DEB7C252D1400FB6F894DEBF3A
:10F840000FBECDBF44245524DD24C25EDE4F188296
:10F85000CE51D1408824992454013BC20E9413FF09
:10F86000282F133059F1143028F4113081F0123060
:10F8700000F507C0153081F1153030F1163071F701
:10F880003DC08B3159F711E05BE1D52EE7CF8130D8
:10F8900041F0C25EDE4F3881CE51D140831709F06E
:10F8A0001AC2D226C25EDE4F2883CE51D14012E06A
:10F8B000D5CFF82EEE24D82613E0D0CF90E0E82A5A
:10F8C000F92AD22614E0CACF8E3009F004C2D82615
:10F8D00015E044245524C2CFE1E0F0E0EC0FFD1F19
:10F8E000E40DF51D80830894411C511CD8264E144C
:10F8F0005F0409F0B3CF720116E0B0CF8D1509F0A7
:10F90000EAC1EBC1CC2447C08D81803311F090E077
:10F910000AC08F81882311F49EE105C0813011F067
:10F9200092E001C097E91A821B828D818C838E81BF
:10F930008D839E831F8247E0E42EF12C89C11A82B9
:10F9400068E06B8383E58C8394E59D83EBE4EE8331
:10F9500085E38F8380E3888789878FE58A8782E3C1
:10F960008B873BE0E32EF12C73C18A81813941F012
:10F97000823941F0803911F48FE005C080E003C086
:10F9800082E001C08AE01A828B8323E0E22EF12C10
:10F990005FC1CC24C3941A8292E0E92EF12C59C1A4
:10F9A0008D81882311F48EE128C0813011F082E02E
:10F9B00024C087E922C01A8229E0E1E0F0E0209328
:10F9C000680084911BC08B81803589F48C818830DC
:10F9D00039F439E0E2E0F0E03093680084910DC042
:10F9E00069E0E0E0F0E060936800849106C099E08F
:10F9F000E3E0F0E09093680084911A828B831C828C
:10FA000084E0E82EF12C24C18A8190E0A0E0B0E0EF
:10FA1000B82EAA24992488248B8190E0A0E0B0E03D
:10FA2000DC0199278827882A992AAA2ABB2A8D814E
:10FA300090E0A0E0B0E0882A992AAA2ABB2A8C810B
:10FA400090E0A0E0B0E0BA2FA92F982F8827882A4D
:10FA5000992AAA2ABB2A89C0EA81C05EDE4FE883C0
:10FA6000C052D140C15EDE4F1882CF51D1408B8150
:10FA7000A82FB0E0C15EDE4F28813981CF51D1403F
:10FA8000A22BB32B933109F044C075016401CC0C57
:10FA9000DD1CEE1CFF1C33E0F601E0925B003093AE
:10FAA0006800E8958091680080FDFCCF8E01055FBD
:10FAB0001F4FF801808161810E5F1F4FA5019401E6
:10FAC000220F331F441F551F362E222490E0822917
:10FAD000932961E00C01F90140935B006093680099
:10FAE000E89511240894811C911CA11CB11C12974B
:10FAF00001F785E0F601E0925B0080936800E895ED
:10FB00008091680080FDFCCF81E180936800E895DA
:10FB10002CC0FE013B9620E030E040E050E0119721
:10FB20007D0100E010E00894E11CF11C011D111D95
:10FB30006081E199FECFC901880D991D9FBB8EBBE5
:10FB40006DBB0FB6F894E29AE19A0FBE2F5F3F4F5C
:10FB50004F4F5F4F2E153F054007510711F031966B
:10FB6000E7CF820E931EA41EB51E1A826EC09A8124
:10FB7000CE5DDE4F9883C252D140CF5DDE4F1882FA
:10FB8000C152D1408B81C82EDD24CF5DDE4FE8818C
:10FB9000F981C152D140CE2ADF2A1A82898184316B
:10FBA000E1F49601BE016D5F7F4FD501C401880F5E
:10FBB000991FAA1FBB1FABBFFC0187919691FB0148
:10FBC000808391836E5F7F4F0894811C911CA11CE0
:10FBD000B11C2250304049F72EC0BE016D5F7F4FEF
:10FBE00020E030E040E050E00894C108D108760100
:10FBF00000E010E00894C11CD11C0894E11CF11C29
:10FC0000011D111DE199FECFC901880D991D9FBBF2
:10FC10008EBBE09A8DB3FB018193BF012F5F3F4FF5
:10FC20004F4F5F4F2E153F054007510759F7820E82
:10FC3000931EA41EB51E23E0E22EF12CEC0CFD1C3D
:10FC4000FB01108205C080EC8A8392E0E92EF12C42
:10FC5000CC248BE10E94C3FEC25EDE4F8881CE5170
:10FC6000D1400E94C3FE8F2D0E94C3FE8E2D0E94A4
:10FC7000C3FE8EE00E94C3FE85E1D82EC25EDE4F39
:10FC8000F881CE51D140DF26DE24DF243E010894E6
:10FC9000611C711C0AC0F30111913F01812F0E9468
:10FCA000C3FED1260894E108F108E114F10499F7A4
:10FCB0008D2D0E94C3FECC2009F044C0C25EDE4FF1
:10FCC000F881CE51D140FF5FC25EDE4FF883CE5146
:10FCD000D140EE24FF2410E0C1CD9981933109F485
:10FCE000BBCE9431B0F4933009F43FCE943038F465
:10FCF000913009F424CE923009F0A5CF03CE903193
:10FD000009F400CE913109F444CE963009F09BCF2E
:10FD10007BCE983109F457CE993150F4953109F4DE
:10FD20009BCE953108F423CF963109F08CCF1FCFAD
:10FD30009B3109F435CE9D3109F4E6CD9A3109F0B5
:10FD400082CF39CECE5DDE4F0FB6F894DEBF0FBE48
:10FD5000CDBFCF91DF911F910F91FF90EF90DF907A
:10FD6000CF90BF90AF909F908F907F906F905F905B
:10FD70004F903F902F9008955F9BFECF08955F9B1B
:10FD8000FECF8CB108955D9BFECF8CB908959B0189
:10FD9000AC0197FF0DC0599A50954095309521952B
:10FDA0003F4F4F4F5F4F60E074E284EF90E005C03B
:10FDB000599860E072E18AE790E00E942FFF2C5F83
:10FDC0003F4F4F4F5F4F83E05695479537952795A7
:10FDD0008A95D1F7215029B9089518BA17BA1F92F8
:10FDE0001F921F920895FFCF84B714BE90E08370D6
:10FDF0009070892B39F418BA17BA1F921F921F926C
:10FE00000895FFCF88E18AB960E072EC81E090E06C
:10FE10000E94C7FE0E9407FC18BA17BA1F921F92D1
:10FE20001F920895FFCF80E090E0A0E0B0E012C004
:10FE30000196A11DB11D81302AE6920728E1A20793
:10FE400020E0B20739F418BA17BA1F921F921F9216
:10FE50000895FFCF5F9BECCF0E94BFFE0895A1E203
:10FE60001A2EAA1BBB1BFD010DC0AA1FBB1FEE1F34
:10FE7000FF1FA217B307E407F50720F0A21BB30B7F
:10FE8000E40BF50B661F771F881F991F1A9469F7FB
:10FE900060957095809590959B01AC01BD01CF0157
:02FEA0000895C3
:040000031000F800F1
:00000001FF
