:10F8000011241FBE8FEF90E19EBF8DBF73C22F9258
:10F810003F924F925F926F927F928F929F92AF92A0
:10F82000BF92CF92DF92EF92FF920F931F93DF93DD
:10F83000CF93CDB7DEB7C152D1400FB6F894DEBF3B
:10F840000FBECDBF6624772400E0CC248824992401
:10F85000B6C10E94A87E282F133001F1143028F47D
:10F86000113079F01230A8F407C0153021F11530AD
:10F87000D8F0163071F731C08B3159F711E00BE138
:10F88000E8CF813011F08C1559F50227C22E12E015
:10F89000E0CFF82EEE24082713E0DBCF90E0E82A33
:10F8A000F92A022714E0D5CF8E30D1F4082715E0CD
:10F8B00066247724CECFE1E0F0E0EC0FFD1FE60DEB
:10F8C000F71D80830894611C711C08276E147F0447
:10F8D00009F0BFCF730116E0BCCF801709F473C1E4
:10F8E00010E0B7CFDD2447C08D81803311F090E068
:10F8F0000AC08F81882311F49EE105C0813011F088
:10F900009AE001C096E91A821B828D818C838E81D8
:10F910008D839E831F8247E0E42EF12C22C11A8240
:10F9200028E02B8333E53C8384E58D839BE49E8331
:10F9300085E38F8380E3888789878FE58A8782E3E1
:10F940008B873BE0E32EF12C0CC18A81813941F099
:10F95000823941F0803911F48FE005C080E003C0A6
:10F9600082E001C08AE01A828B8323E0E22EF12C30
:10F97000F8C0DD24D3941A8292E0E92EF12CF2C073
:10F980008D81882311F48EE128C0813011F08AE046
:10F9900024C086E922C01A8229E0E1E0F0E0209349
:10F9A000570084911BC08B81803589F48C8188300D
:10F9B00039F439E0E2E0F0E03093570084910DC073
:10F9C00099E0E0E0F0E090935700849106C029E0D0
:10F9D000E3E0F0E02093570084911A828B831C822D
:10F9E00084E0E82EF12CBDC03C8022248D81882E3D
:10F9F00099248228932867C03A81C15EDE4F3883FC
:10FA0000CF51D140C25EDE4F1882CE51D1408B81A2
:10FA1000482F50E0C25EDE4FE881F981CE51D140DF
:10FA20004E2B5F2B933109F033C0B401660F771F63
:10FA300023E0FB0120935700E89507B600FCFDCFBB
:10FA4000DE011B968C9111962C9111971296F40160
:10FA5000EE0FFF1F522E442490E08429952931E0B7
:10FA60000C0130935700E89511240894811C911CD7
:10FA70004250504039F725E0FB0120935700E895AC
:10FA800007B600FCFDCF81E180935700E8951BC0CD
:10FA9000FE013B9680E090E09C01280D391D6081BD
:10FAA000F999FECF1FBA32BD21BD60BD0FB6F894E3
:10FAB000FA9AF99A0FBE01964817590711F0319634
:10FAC000EBCF840E951E1A8249C03A81CF5DDE4F7E
:10FAD0003883C152D140C05EDE4F1882C052D1403F
:10FAE0008B81082F10E0C05EDE4F88819981C05263
:10FAF000D140082B192B1A8289818431A1F49801F5
:10FB0000DE011396F401EE0FFF1F859194918C9303
:10FB100011969C93119712960894811C911C225067
:10FB2000304081F712C0A8019401DE011396F999C3
:10FB3000FECF32BD21BDF89A80B58D932F5F3F4F28
:10FB400041505040A1F7800E911E93E0E92EF12C18
:10FB5000E00EF11E1C9205C080EC8A8382E0E82E44
:10FB6000F12CDD2447988BE10E943E7E8C2D0E9473
:10FB70003E7E8F2D0E943E7E8E2D0E943E7E8EE028
:10FB80000E943E7E05E10C250E250F255E0108949E
:10FB9000A11CB11C0AC0F50111915F01812F0E94C7
:10FBA0003E7E01270894E108F108E114F10499F779
:10FBB000802F0E943E7E479ADD20D1F5C39410E04D
:10FBC000EE24FF2446CE9981933109F415CF943168
:10FBD000B0F4933009F4B9CE943038F4913009F48C
:10FBE0009ECE923009F0B8CF7DCE903109F47ACE16
:10FBF000913109F4BECE963009F0AECFF5CE9831F2
:10FC000009F4D1CE993150F4953109F4F5CE9531FE
:10FC100008F45BCF963109F09FCF57CF9B3109F4A1
:10FC2000AFCE9D3109F460CE9A3109F095CFB3CEB5
:10FC3000CF5DDE4F0FB6F894DEBF0FBECDBFCF91C4
:10FC4000DF911F910F91FF90EF90DF90CF90BF90C9
:10FC5000AF909F908F907F906F905F904F903F906C
:10FC60002F9008958091C00087FFFCCF0895809168
:10FC7000C00087FFFCCF8091C6000895982F809127
:10FC8000C00085FFFCCF9093C60008959B01AC0196
:10FC900097FF11C08091C00082608093C000509592
:10FCA0004095309521953F4F4F4F5F4F60E874E886
:10FCB0008EE190E009C08091C0008D7F8093C000EC
:10FCC00060E472E48FE090E00E94CF7E21503040EB
:10FCD0003093C5002093C400089515B814B818B81F
:10FCE00017B818B817B818B817B81F921F921F92F4
:10FCF0000895FFCF84B714BE90E083709070892B75
:10FD000069F415B814B818B817B818B817B818B8EF
:10FD100017B81F921F921F920895FFCF88E180931A
:10FD2000C1003C9A3F9A61E774E38EEF9FEF0E9417
:10FD3000467E0E94077C15B814B818B817B818B8D2
:10FD400017B818B817B81F921F921F920895FFCFC7
:10FD5000449820E030E040E050E019C02F5F3F4F72
:10FD60004F4F5F4F21308AE6380788E1480780E02F
:10FD7000580769F415B814B818B817B818B817B8F0
:10FD800018B817B81F921F921F920895FFCF809145
:10FD9000C00087FFE3CF449A0E94377E0895A1E216
:10FDA0001A2EAA1BBB1BFD010DC0AA1FBB1FEE1FF5
:10FDB000FF1FA217B307E407F50720F0A21BB30B40
:10FDC000E40BF50B661F771F881F991F1A9469F7BC
:10FDD00060957095809590959B01AC01BD01CF0118
:02FDE000089584
:040000030000F80001
:00000001FF
