:100000000C9448000C9472000C9472000C947200D2
:100010000C9472000C9472000C9472000C94720098
:100020000C9472000C9484060C94B1060C94920704
:100030000C94DE060C940B070C9465070C942A06AE
:100040000C9457060C9472000C9472000C9472007D
:100050000C9472000C9472000C9472000C94720058
:100060000C9438070C9473080C94BF070C94EC079D
:100070000C9419080C9446080C9472000C947200AD
:100080000C9472000C9472000C94720074005B0A61
:1000900011241FBECFEFD0E1DEBFCDBF11E0A0E045
:1000A000B1E0E4E3F5E100E00BBF02C007900D9280
:1000B000AA30B107D9F711E0AAE0B1E001C01D9262
:1000C000A83BB107E1F710E0C0E9D0E004C02297F7
:1000D000FE010E94940ACC38D107C9F70E94D704C8
:1000E0000C94980A0C940000CF92EF920F938AE040
:1000F00091E065E047E028E009E05AE0E52E3BE0CA
:10010000C32E0E949F030F91EF90CF900895CF933D
:10011000DF938AE091E060E040E00E94F001C0E0FF
:10012000D0E08AE091E0BE014AE050E00E94E205A2
:1001300064EF71E080E090E00E94FA032196CA30FB
:10014000D10579F78AE091E060E141E00E94F00199
:100150008AE091E00E94D301C0E0D0E08AE091E023
:10016000BE014AE050E00E94E20564EF71E080E0E9
:1001700090E00E94FA032196CA30D10579F78AE00F
:1001800091E00E94CB018AE091E00E947202DF912F
:10019000CF9108958AE091E060E141E020E00E9483
:1001A0000A0308950F931F93CF93DF93EC01062F5B
:1001B000617089890E949D040695602F61708A890B
:1001C0000E949D040695602F61708B890E949D049A
:1001D00010E0159507950170639689816397602FEC
:1001E0000E949D04088599859F3F19F08A85811199
:1001F000092F802F61E00E949D04802F60E00E9403
:100200009D04DF91CF911F910F910895EF92FF927E
:100210000F931F93CF93DF93EC01062FE42EF88406
:1002200099859F3F19F08A858111F92E8F818F3F23
:1002300061F4EC81FD81309719F08A85099547C0FA
:1002400080E491E00E94240442C0898960E00E9419
:100250002F048A8960E00E942F048B8960E00E944D
:100260002F048C8960E00E942F048F8161E00E943E
:100270009D048E8160E00E949D048F2D61E00E94AC
:100280009D048C890E946904182F8F2D60E00E94C4
:100290009D048F2D61E00E949D048F2D60E00E94DF
:1002A0009D04113051F3898961E00E942F048A89ED
:1002B00061E00E942F048B8961E00E942F048C89E9
:1002C00061E00E942F048F8160E00E949D048E8176
:1002D0006E2D0E949D04602F607189890E949D048B
:1002E000602F60728A890E949D04602F60748B89E0
:1002F0000E949D04602F60788C890E949D048F2D40
:1003000061E00E949D048F2D60E00E949D04602F9B
:10031000617089890E949D04602F62708A890E94A1
:100320009D04602F64708B890E949D0408708C89E5
:10033000602F0E949D048F2D61E00E949D048F2DEF
:1003400060E00E949D04DF91CF911F910F91FF907B
:10035000EF9008950F931F93CF93DF93EC01062F37
:1003600089858F3F29F4CE0140E00E9406010EC02E
:100370001A851A86CE0140E00E94060182E08A8733
:10038000CE01602F40E00E9406011A87DF91CF91D5
:100390001F910F910895FC01648D6E7F648F6460DE
:1003A0000E94AA010895FC01648D862F8160848FCC
:1003B0006560CF010E94AA010895FC01638D862F1C
:1003C0008460838F6C60CF010E94AA010895FC01B4
:1003D000638D6D7F638F686040E00E940601089521
:1003E000FF920F931F93CF93DF93EC01042F8E891D
:1003F000841710F4082F01500D876C871E86202F5C
:1004000030E0FE01E20FF31FF7881B85160F8F2DDA
:100410008F73180F18320CF0185217FD185D8A856B
:1004200090E0227030708217930719F0CE010E947D
:10043000E70102700A8780E4F8221F291068CE01C4
:10044000612F40E00E940601DF91CF911F910F9133
:10045000FF9008951F93CF93DF93EC01162F8B85A8
:10046000882319F48E85882329F0CE016C854D856B
:100470000E94F0011D3039F01A3029F0CE01612FB1
:1004800041E00E9406011E868F852C85882371F429
:100490002F5F2C871D3041F0332727FD30958D8944
:1004A00090E02817390784F01C8609C021502C875A
:1004B0001A3011F027FF08C08D8981508C878D85F7
:1004C0008F5F8D8781E08E872D85332727FD3095BF
:1004D0008E8990E0281739070CF01D86DF91CF91A7
:1004E0001F910895CF93DF93EC0189858F3FF1F041
:1004F00082E08A87CE0161E040E00E9406011A8610
:10050000CE0161E040E00E9406018F818F3F41F4FF
:100510008C819D81892B21F484E59BE00E94240439
:10052000CE0160E040E00E94F00110C0CE0161E029
:1005300040E00E9406018F818F3F41F48C819D81B4
:10054000892B21F484E59BE00E9424041B86DF9123
:10055000CF910895FF920F931F93CF93DF93EC01F8
:10056000F02E423010F008E001C000E0222319F024
:10057000413009F4046010E08CE49DE10E94240401
:100580001F5F1231C9F78E8160E00E949D048F2D9C
:1005900060E00E949D048E8160E00E949D04CE0177
:1005A00063E00E94D20088E893E10E942404CE0117
:1005B00063E00E94D20086E990E00E942404CE010C
:1005C00063E00E94D20086E990E00E942404CE01FC
:1005D00062E00E94D20086E990E00E94240400625A
:1005E000CE01602F40E00E94060184E08B8FCE0197
:1005F0000E94DD01CE010E94720282E08C8FCE014A
:1006000066E040E00E940601DF91CF911F910F91BB
:10061000FF900895EF92FF920F931F93CF93DF9374
:10062000EC01162FF42EE22E6D8B6B834E8B4A83DA
:100630008F89860F898F888D860F8A8FCE010885D6
:100640000E94AA0209850F3F59F0198E80E48A8F13
:1006500082E08A87CE01612F4F2D2E2D0E94AA02A3
:10066000DF91CF911F910F91FF90EF9008956F92BE
:100670007F928F92AF92CF92EF920F931F93DF935F
:10068000CF93CDB7DEB73C01142F8E2DF3016683D7
:100690009FEF978315821482208701871286138625
:1006A0001486158616861786E18AC28AA38A848AEA
:1006B00061E00E942F048C2D61E00E942F048A2D9E
:1006C00061E00E942F04882D61E00E942F04F30155
:1006D000178A80E4808F84E1818F84E5828F868110
:1006E00061E00E942F041F3F41F0812F61E00E94D2
:1006F0002F04812F60E00E949D04F301808561E05A
:100700000E942F040F3F21F0802F61E00E942F04F0
:10071000C30164E141E020E00E940A038D859E85CB
:10072000F301958384831783CF91DF911F910F91FC
:10073000EF90CF90AF908F907F906F9008958F92B1
:10074000AF92CF92EF920F93CF93DF93FC01342FB0
:10075000522F702FAE2C8C2C84E091E091838083FB
:1007600000D0CDB7DEB71A821982CF014FEF232F09
:100770000FEFE52EC72E0E9437030F900F90DF91E9
:10078000CF910F91EF90CF90AF908F90089580917F
:100790002B0190912C01A0912D01B0912E0130914F
:1007A0002F010196A11DB11D232F2D5F2D3720F0A4
:1007B0002D570196A11DB11D20932F0180932B0170
:1007C00090932C01A0932D01B0932E0180912701CD
:1007D00090912801A0912901B0912A010196A11DB3
:1007E000B11D8093270190932801A0932901B09314
:1007F0002A010895EF92FF920F931F937B018C01C2
:100800008FB7F89440912B0150912C0160912D01EC
:1008100070912E018FBF2FB7F89480912B0190918A
:100820002C01A0912D01B0912E012FBF841B950B9F
:10083000A60BB70B8E159F05A007B10760F31F919C
:100840000F91FF90EF900895009741F0019731F0DC
:10085000880F991F880F991F0197F1F70895282F86
:1008600086958695869519F4E1E3F0E01DC0813008
:1008700019F4E4E3F0E018C0823019F4EAE3F0E0A0
:1008800013C0833019F4E7E3F0E00EC0843019F4AC
:10089000E2E2F0E009C0853019F4E1E6F0E004C0DE
:1008A0008630B1F4E4E6F0E0277081E090E0982F24
:1008B00001C0990F2A95EAF72FB7F894662321F41F
:1008C00080819095892302C08081892B80832FBFEE
:1008D0000895382F86958695869519F4E0E3F0E023
:1008E0001DC0813019F4E3E3F0E018C0823019F440
:1008F000E9E3F0E013C0833019F4E6E3F0E00EC062
:10090000843019F4E1E2F0E009C0853019F4E0E246
:10091000F0E004C0863081F4E3E6F0E02081377037
:1009200081E090E002C0880F991F3A95E2F72823F2
:1009300009F021E0822F08950895282F8695869545
:10094000869519F4E2E3F0E01DC0813019F4E5E387
:10095000F0E018C0823019F4EBE3F0E013C083300C
:1009600019F4E8E3F0E00EC0843019F4E3E2F0E0BB
:1009700009C0853019F4E2E6F0E004C08630B1F435
:10098000E5E6F0E0277081E090E0982F01C0990F34
:100990002A95EAF72FB7F894662321F48081909581
:1009A000892302C08081892B80832FBF08950E94F4
:1009B000F5050E94CA000E948700FDCF0F931F9388
:1009C000CF93DF938C01EB0109C02196D801ED9103
:1009D000FC910190F081E02DC801099568816623A2
:1009E000A1F7DF91CF911F910F910895EF92FF92A0
:1009F0000F931F93CF93DF938C017B01EA010CC00F
:100A0000D7016D917D01D801ED91FC910190F081AC
:100A1000E02DC80109952197209791F7DF91CF919B
:100A20001F910F91FF90EF9008952F923F924F9258
:100A30005F926F927F928F929F92AF92BF92CF926E
:100A4000DF92EF92FF920F931F93DF93CF93CDB777
:100A5000DEB7A0970FB6F894DEBF0FBECDBF1C0166
:100A60006A017B01411551056105710549F4DC01FD
:100A7000ED91FC910190F081E02D60E3099554C067
:100A8000882499245401422E55246624772401E0B9
:100A900010E00C0F1D1F080D191DC701B601A301A1
:100AA00092010E94700AF80160830894811C911CD5
:100AB000A11CB11CC701B601A30192010E94700ADA
:100AC000C901DA016C017D01C114D104E104F10412
:100AD000F1F681E0E82EF12CEC0EFD1EE80CF91C7D
:100AE0003E010894611C711CD501C4010197A10944
:100AF000B1096C01C818D90814C0F601EE0DFF1D2C
:100B000060816A3010F4605D01C0695CD101ED91D3
:100B1000FC910190F081E02DC10109950894E10854
:100B2000F1086E147F0449F7A0960FB6F894DEBF63
:100B30000FBECDBFCF91DF911F910F91FF90EF902E
:100B4000DF90CF90BF90AF909F908F907F906F90ED
:100B50005F904F903F902F900895EF92FF920F93E8
:100B60001F93CF93DF93EC017A018B01211531059F
:100B700041F4E881F9810190F081E02D642F09951D
:100B80001AC02A303105A9F477FF0FC0E881F98136
:100B90000190F081E02D6DE2099510950095F0949B
:100BA000E094E11CF11C011D111DCE01B801A7014B
:100BB0002AE00E941505DF91CF911F910F91FF90C0
:100BC000EF900895EF92FF920F931F937B019A018C
:100BD0000027F7FC0095102FB801A7010E94AD0572
:100BE0001F910F91FF90EF9008950F931F9300E3D3
:100BF00011E0C80163E00E942E0AC80160E047ECE2
:100C000053E021E00E94030AC80164E00E94A008AA
:100C100002E511E0C80161E00E942E0AC80164E00B
:100C20000E94A00804E711E0C80161E00E942E0ABA
:100C3000C80164E00E94A00806E911E0C80161E073
:100C40000E942E0AC80164E00E94A00878941F91B7
:100C50000F9108951F920F920FB60F920BB60F923D
:100C600011242F933F934F935F936F937F938F93B1
:100C70009F93AF93BF93EF93FF93E0914A01F0915D
:100C80004B01309709F00995FF91EF91BF91AF911A
:100C90009F918F917F916F915F914F913F912F9194
:100CA0000F900BBE0F900FBE0F901F9018951F92C4
:100CB0000F920FB60F920BB60F9211242F933F9302
:100CC0004F935F936F937F938F939F93AF93BF9354
:100CD000EF93FF93E0914801F0914901309709F0BB
:100CE0000995FF91EF91BF91AF919F918F917F9166
:100CF0006F915F914F913F912F910F900BBE0F908D
:100D00000FBE0F901F9018951F920F920FB60F9263
:100D10000BB60F9211242F933F934F935F936F93D2
:100D20007F938F939F93AF93BF93EF93FF93E09144
:100D30008E01F0918F01309709F00995FF91EF91A5
:100D4000BF91AF919F918F917F916F915F914F91E3
:100D50003F912F910F900BBE0F900FBE0F901F90E1
:100D600018951F920F920FB60F920BB60F92112487
:100D70002F933F934F935F936F937F938F939F93A3
:100D8000AF93BF93EF93FF93E0918C01F0918D01AE
:100D9000309709F00995FF91EF91BF91AF919F9125
:100DA0008F917F916F915F914F913F912F910F9014
:100DB0000BBE0F900FBE0F901F9018951F920F92B1
:100DC0000FB60F920BB60F9211242F933F934F93B0
:100DD0005F936F937F938F939F93AF93BF93EF93A3
:100DE000FF93E0916C01F0916D01309709F0099546
:100DF000FF91EF91BF91AF919F918F917F916F91F3
:100E00005F914F913F912F910F900BBE0F900FBEAE
:100E10000F901F9018951F920F920FB60F920BB65E
:100E20000F9211242F933F934F935F936F937F9370
:100E30008F939F93AF93BF93EF93FF93E0916E01D6
:100E4000F0916F01309709F00995FF91EF91BF91F3
:100E5000AF919F918F917F916F915F914F913F9152
:100E60002F910F900BBE0F900FBE0F901F901895F3
:100E70001F920F920FB60F920BB60F9211242F9361
:100E80003F934F935F936F937F938F939F93AF9312
:100E9000BF93EF93FF93E0917001F0917101309750
:100EA00009F00995FF91EF91BF91AF919F918F91BB
:100EB0007F916F915F914F913F912F910F900BBE5A
:100EC0000F900FBE0F901F9018951F920F920FB6A4
:100ED0000F920BB60F9211242F933F934F935F9372
:100EE0006F937F938F939F93AF93BF93EF93FF93F2
:100EF000E0916A01F0916B01309709F00995FF913B
:100F0000EF91BF91AF919F918F917F916F915F9181
:100F10004F913F912F910F900BBE0F900FBE0F90EE
:100F20001F9018951F920F920FB60F920BB60F924B
:100F300011242F933F934F935F936F937F938F93DE
:100F40009F93AF93BF93EF93FF93E0917201F09162
:100F50007301309709F00995FF91EF91BF91AF911F
:100F60009F918F917F916F915F914F913F912F91C1
:100F70000F900BBE0F900FBE0F901F9018951F92F1
:100F80000F920FB60F920BB60F9211242F933F932F
:100F90004F935F936F937F938F939F93AF93BF9381
:100FA000EF93FF93E091B001F091B101309709F018
:100FB0000995FF91EF91BF91AF919F918F917F9193
:100FC0006F915F914F913F912F910F900BBE0F90BA
:100FD0000FBE0F901F9018951F920F920FB60F9291
:100FE0000BB60F9211242F933F934F935F936F9300
:100FF0007F938F939F93AF93BF93EF93FF93E09172
:10100000B201F091B301309709F00995FF91EF918A
:10101000BF91AF919F918F917F916F915F914F9110
:101020003F912F910F900BBE0F900FBE0F901F900E
:1010300018951F920F920FB60F920BB60F921124B4
:101040002F933F934F935F936F937F938F939F93D0
:10105000AF93BF93EF93FF93E091B401F091B5018B
:10106000309709F00995FF91EF91BF91AF919F9152
:101070008F917F916F915F914F913F912F910F9041
:101080000BBE0F900FBE0F901F9018951F920F92DE
:101090000FB60F920BB60F9211242F933F934F93DD
:1010A0005F936F937F938F939F93AF93BF93EF93D0
:1010B000FF93E091AE01F091AF01309709F00995EF
:1010C000FF91EF91BF91AF919F918F917F916F9120
:1010D0005F914F913F912F910F900BBE0F900FBEDC
:1010E0000F901F9018951F920F920FB60F920BB68C
:1010F0000F9211242F933F934F935F936F937F939E
:101100008F939F93AF93BF93EF93FF93E091B601BB
:10111000F091B701309709F00995FF91EF91BF91D8
:10112000AF919F918F917F916F915F914F913F917F
:101130002F910F900BBE0F900FBE0F901F90189520
:10114000FC018081882381F4643031F1653028F41A
:101150006230E1F06330F0F40FC0663009F16630C0
:10116000E8F0673009F51EC06630B1F0673038F43A
:10117000623061F0643071F06130B1F409C0683000
:1011800079F0683058F0693079F40CC092E00DC005
:1011900091E00BC093E009C094E007C095E005C062
:1011A00096E003C097E001C090E00284F385E02D53
:1011B0008081887F982B90830895CF93DF93EC01F3
:1011C00068836130F1F0613038F0623009F448C072
:1011D000633009F092C064C01B821A8282E590E0FD
:1011E0009D838C8387E590E09F838E8383E590E0E9
:1011F000998788879B878A871D861C8681E590E072
:1012000043C087E590E09F838E838DE490E09B83CD
:101210008A838CE490E09D838C838FE490E09987AF
:1012200088878EE490E09B878A878BE490E09D8797
:101230008C878AE490E09F878E8789E490E0998B81
:10124000888B88E490E09B8B8A8B89E790E09D8B6C
:101250008C8B88E790E09F8B8E8B83E089834DC0D9
:101260001B821A8284E490E09D838C8387E590E062
:101270009F838E8385E490E0998788879B878A8700
:101280001D861C8683E490E09F878E87198A188AC2
:101290001B8A1A8A1D8A1C8A1F8A1E8A81E0DECF59
:1012A0008DE790E09F838E8389E890E09B838A831B
:1012B00088E890E09D838C838BE890E0998788870D
:1012C0008AE890E09B878A8787E890E09D878C87F3
:1012D00086E890E09F878E8785E890E0998B888BE1
:1012E00084E890E09B8B8A8B83E890E09D8B8C8BCD
:1012F00082E890E09F8B8E8B6983CE0160E00E9434
:10130000A008EA81FB81309709F01082EC81FD8111
:101310001082198E188E1B8E1A8E1D8E1C8E1F8E9B
:101320001E8E19A218A2DF91CF910895FC016230A0
:1013300079F1633030F4662351F0613009F062C016
:1013400016C0633079F1643009F05CC033C080812D
:10135000882311F1813011F482E01EC0823011F433
:1013600086E01AC0833009F04DC082E02DC0808134
:10137000882311F481E010C0813011F484E00CC0A6
:10138000823011F487E008C08330E1F584E01CC0AE
:101390008081813021F483E0E7E5F0E017C08330FD
:1013A00089F512C08081813011F480E00DC0833056
:1013B00049F509C08081813011F485E0EDCF83309B
:1013C00009F585E001C081E0EDE7F0E02081682FBC
:1013D000772767FD709581E090E0062E02C0880FA8
:1013E000991F0A94E2F78095822320E030E044239D
:1013F00011F021E030E002C0220F331F6A95E2F7BE
:10140000822B80830895FC01623091F0633028F4D0
:10141000662341F06130A1F408C0633061F06430AC
:1014200079F40CC0518F408F0BC0538F428F08C08E
:10143000558F448F05C0578F468F02C051A340A3DC
:10144000452B29F4CF0140E00E94960908952223FC
:1014500021F0CF0141E00E9496090895FC0120810E
:10146000222311F02230C9F40084F185E02D40815F
:10147000262F30E0C9018170907066E0880F991FB7
:101480006A95E1F722703070220F331F220F331F4D
:10149000822B477B842B808308950284F385E02D83
:1014A0002081862F90E08C709070880F991F277E86
:1014B000282B2083089580E391E060E00E94DD08FE
:1014C00082E591E061E00E94DD0884E791E062E05E
:1014D0000E94DD0886E991E063E00E94DD0808953E
:1014E000A1E21A2EAA1BBB1BFD010DC0AA1FBB1F28
:1014F000EE1FFF1FA217B307E407F50720F0A21B9A
:10150000B30BE40BF50B661F771F881F991F1A9406
:1015100069F760957095809590959B01AC01BD0130
:10152000CF010895EE0FFF1F0590F491E02D09946F
:04153000F894FFCF5D
:0A153400000000002A02DE04F604A5
:00000001FF
