:10F8000011241FBE8FEF90E19EBF8DBF6CC22F925F
:10F810003F924F925F926F927F928F929F92AF92A0
:10F82000BF92CF92DF92EF92FF920F931F93DF93DD
:10F83000CF93CDB7DEB7C152D1400FB6F894DEBF3B
:10F840000FBECDBF6624772400E0CC248824992401
:10F85000B5C10E94937E282F133009F1143028F48B
:10F86000113079F01230B0F407C0153031F1153095
:10F87000E0F0163071F733C08B3159F711E00BE12E
:10F88000E8CF813019F08C1509F09AC10227C22EF9
:10F8900012E0DFCFF82EEE24082713E0DACF90E055
:10F8A000E82AF92A022714E0D4CF8E3009F088C163
:10F8B000082715E066247724CCCFE1E0F0E0EC0FD8
:10F8C000FD1FE60DF71D80830894611C711C08273D
:10F8D0006E147F0409F0BDCF730116E0BACF801714
:10F8E00009F06EC16FC1DD2447C08D81803311F0F6
:10F8F00090E00AC08F81882311F49EE105C0813019
:10F9000011F09AE001C096E91A821B828D818C83E6
:10F910008E818D839E831F8247E0E42EF12C22C1CD
:10F920001A8228E02B8333E53C8384E58D839BE4B6
:10F930009E8385E38F8380E3888789878FE58A8725
:10F9400082E38B873BE0E32EF12C0CC18A81813965
:10F9500041F0823941F0803911F48FE005C080E038
:10F9600003C082E001C08AE01A828B8323E0E22E8A
:10F97000F12CF8C0DD24D3941A8292E0E92EF12C08
:10F98000F2C08D81882311F48EE128C0813011F0FE
:10F990008AE024C086E922C01A8229E0E1E0F0E092
:10F9A0002093570084911BC08B81803589F48C8112
:10F9B000883039F439E0E2E0F0E030935700849188
:10F9C0000DC099E0E0E0F0E090935700849106C00C
:10F9D00029E0E3E0F0E02093570084911A828B83C2
:10F9E0001C8284E0E82EF12CBDC03C8022248D8155
:10F9F000882E99248228932867C03A81C15EDE4F01
:10FA00003883CF51D140C25EDE4F1882CE51D140F3
:10FA10008B81482F50E0C25EDE4FE881F981CE51E4
:10FA2000D1404E2B5F2B933109F033C0B401660FE8
:10FA3000771F23E0FB0120935700E89507B600FCF1
:10FA4000FDCFDE011B968C9111962C911197129689
:10FA5000F401EE0FFF1F522E442490E084299529D3
:10FA600031E00C0130935700E89511240894811C73
:10FA7000911C4250504039F725E0FB01209357007C
:10FA8000E89507B600FCFDCF81E180935700E8952B
:10FA90001BC0FE013B9680E090E09C01280D391DC3
:10FAA0006081F999FECF1FBA32BD21BD60BD0FB68E
:10FAB000F894FA9AF99A0FBE01964817590711F06F
:10FAC0003196EBCF840E951E1A8249C03A81CF5DE4
:10FAD000DE4F3883C152D140C05EDE4F1882C05223
:10FAE000D1408B81082F10E0C05EDE4F8881998164
:10FAF000C052D140082B192B1A8289818431A1F47C
:10FB00009801DE011396F401EE0FFF1F8591949189
:10FB10008C9311969C93119712960894811C911CBA
:10FB20002250304081F712C0A8019401DE011396E3
:10FB3000F999FECF32BD21BDF89A80B58D932F5F24
:10FB40003F4F41505040A1F7800E911E93E0E92EA7
:10FB5000F12CE00EF11E1C9205C080EC8A8382E03D
:10FB6000E82EF12CDD248BE10E943D7E8C2D0E943D
:10FB70003D7E8F2D0E943D7E8E2D0E943D7E8EE02B
:10FB80000E943D7E05E10C250E250F255E0108949F
:10FB9000A11CB11C0AC0F50111915F01812F0E94C7
:10FBA0003D7E01270894E108F108E114F10499F77A
:10FBB000802F0E943D7EDD20D1F5C394EE24FF24EA
:10FBC00010E047CE9981933109F417CF9431B0F406
:10FBD000933009F4BBCE943038F4913009F4A0CEC0
:10FBE000923009F0BACF7FCE903109F47CCE9131BA
:10FBF00009F4C0CE963009F0B0CFF7CE983109F4B1
:10FC0000D3CE993150F4953109F4F7CE953108F4FB
:10FC10005DCF963109F0A1CF59CF9B3109F4B1CE18
:10FC20009D3109F462CE9A3109F097CFB5CECF5D00
:10FC3000DE4F0FB6F894DEBF0FBECDBFCF91DF9180
:10FC40001F910F91FF90EF90DF90CF90BF90AF90FA
:10FC50009F908F907F906F905F904F903F902F90EC
:10FC600008958091C00087FFFCCF08958091C00067
:10FC700087FFFCCF8091C6000895982F8091C00027
:10FC800085FFFCCF9093C60008959B01AC0197FFC0
:10FC900011C08091C00082608093C0005095409553
:10FCA000309521953F4F4F4F5F4F60E874E88EE1EC
:10FCB00090E009C08091C0008D7F8093C00060E417
:10FCC00072E48FE090E00E94B27E21503040309389
:10FCD000C5002093C400089518B817B81F921F924A
:10FCE0001F920895FFCF84B714BE90E08370907088
:10FCF000892B39F418B817B81F921F921F920895D4
:10FD0000FFCF88E18093C10061E774E38EEF9FEF3E
:10FD10000E94457E0E94077C18B817B81F921F9258
:10FD20001F920895FFCF20E030E040E050E013C084
:10FD30002F5F3F4F4F4F5F4F21308AE6380788E1F2
:10FD4000480780E0580739F418B817B81F921F9277
:10FD50001F920895FFCF8091C00087FFE9CF0E94D6
:10FD6000367E0895A1E21A2EAA1BBB1BFD010DC011
:10FD7000AA1FBB1FEE1FFF1FA217B307E407F5075B
:10FD800020F0A21BB30BE40BF50B661F771F881F37
:10FD9000991F1A9469F760957095809590959B01CD
:08FDA000AC01BD01CF01089583
:040000030000F80001
:00000001FF
